{
  "_format": "hh-sol-artifact-1",
  "contractName": "LoanContract",
  "sourceName": "contracts/LoanContract.sol",
  "abi": [
    {
      "anonymous": false,
      "inputs": [
        {
          "indexed": false,
          "internalType": "uint256",
          "name": "loanId",
          "type": "uint256"
        },
        {
          "indexed": false,
          "internalType": "address",
          "name": "borrower",
          "type": "address"
        },
        {
          "indexed": false,
          "internalType": "uint256",
          "name": "amount",
          "type": "uint256"
        },
        {
          "indexed": false,
          "internalType": "uint256",
          "name": "duration",
          "type": "uint256"
        },
        {
          "indexed": false,
          "internalType": "string",
          "name": "decision",
          "type": "string"
        }
      ],
      "name": "LoanStored",
      "type": "event"
    },
    {
      "inputs": [
        {
          "internalType": "uint256",
          "name": "_loanId",
          "type": "uint256"
        }
      ],
      "name": "getLoan",
      "outputs": [
        {
          "internalType": "address",
          "name": "borrower",
          "type": "address"
        },
        {
          "internalType": "uint256",
          "name": "amount",
          "type": "uint256"
        },
        {
          "internalType": "uint256",
          "name": "duration",
          "type": "uint256"
        },
        {
          "internalType": "string",
          "name": "decision",
          "type": "string"
        }
      ],
      "stateMutability": "view",
      "type": "function"
    },
    {
      "inputs": [],
      "name": "loanCount",
      "outputs": [
        {
          "internalType": "uint256",
          "name": "",
          "type": "uint256"
        }
      ],
      "stateMutability": "view",
      "type": "function"
    },
    {
      "inputs": [
        {
          "internalType": "uint256",
          "name": "",
          "type": "uint256"
        }
      ],
      "name": "loans",
      "outputs": [
        {
          "internalType": "address",
          "name": "borrower",
          "type": "address"
        },
        {
          "internalType": "uint256",
          "name": "amount",
          "type": "uint256"
        },
        {
          "internalType": "uint256",
          "name": "duration",
          "type": "uint256"
        },
        {
          "internalType": "string",
          "name": "decision",
          "type": "string"
        }
      ],
      "stateMutability": "view",
      "type": "function"
    },
    {
      "inputs": [
        {
          "internalType": "uint256",
          "name": "_amount",
          "type": "uint256"
        },
        {
          "internalType": "uint256",
          "name": "_duration",
          "type": "uint256"
        },
        {
          "internalType": "string",
          "name": "_decision",
          "type": "string"
        }
      ],
      "name": "storeLoan",
      "outputs": [],
      "stateMutability": "nonpayable",
      "type": "function"
    }
  ],
  "bytecode": "0x608060405234801561001057600080fd5b50610b7b806100206000396000f3fe608060405234801561001057600080fd5b506004361061004c5760003560e01c8063504006ca146100515780637e27386414610084578063ce63094d146100a0578063e1ec3c68146100be575b600080fd5b61006b6004803603810190610066919061047e565b6100f1565b60405161007b949392919061058b565b60405180910390f35b61009e6004803603810190610099919061070c565b610239565b005b6100a8610356565b6040516100b5919061077b565b60405180910390f35b6100d860048036038101906100d3919061047e565b61035c565b6040516100e8949392919061058b565b60405180910390f35b6000806000606060008060008781526020019081526020016000206040518060800160405290816000820160009054906101000a900473ffffffffffffffffffffffffffffffffffffffff1673ffffffffffffffffffffffffffffffffffffffff1673ffffffffffffffffffffffffffffffffffffffff1681526020016001820154815260200160028201548152602001600382018054610191906107c5565b80601f01602080910402602001604051908101604052809291908181526020018280546101bd906107c5565b801561020a5780601f106101df5761010080835404028352916020019161020a565b820191906000526020600020905b8154815290600101906020018083116101ed57829003601f168201915b505050505081525050905080600001518160200151826040015183606001519450945094509450509193509193565b60405180608001604052803373ffffffffffffffffffffffffffffffffffffffff16815260200184815260200183815260200182815250600080600154815260200190815260200160002060008201518160000160006101000a81548173ffffffffffffffffffffffffffffffffffffffff021916908373ffffffffffffffffffffffffffffffffffffffff160217905550602082015181600101556040820151816002015560608201518160030190816102f491906109a2565b509050507fc95eab3a131d8b0317e36ca3ac2b167f65ca0186f0efc30cbd2fd6d6484dc70860015433858585604051610331959493929190610a74565b60405180910390a16001600081548092919061034c90610afd565b9190505550505050565b60015481565b60006020528060005260406000206000915090508060000160009054906101000a900473ffffffffffffffffffffffffffffffffffffffff16908060010154908060020154908060030180546103b1906107c5565b80601f01602080910402602001604051908101604052809291908181526020018280546103dd906107c5565b801561042a5780601f106103ff5761010080835404028352916020019161042a565b820191906000526020600020905b81548152906001019060200180831161040d57829003601f168201915b5050505050905084565b6000604051905090565b600080fd5b600080fd5b6000819050919050565b61045b81610448565b811461046657600080fd5b50565b60008135905061047881610452565b92915050565b6000602082840312156104945761049361043e565b5b60006104a284828501610469565b91505092915050565b600073ffffffffffffffffffffffffffffffffffffffff82169050919050565b60006104d6826104ab565b9050919050565b6104e6816104cb565b82525050565b6104f581610448565b82525050565b600081519050919050565b600082825260208201905092915050565b60005b8381101561053557808201518184015260208101905061051a565b60008484015250505050565b6000601f19601f8301169050919050565b600061055d826104fb565b6105678185610506565b9350610577818560208601610517565b61058081610541565b840191505092915050565b60006080820190506105a060008301876104dd565b6105ad60208301866104ec565b6105ba60408301856104ec565b81810360608301526105cc8184610552565b905095945050505050565b600080fd5b600080fd5b7f4e487b7100000000000000000000000000000000000000000000000000000000600052604160045260246000fd5b61061982610541565b810181811067ffffffffffffffff82111715610638576106376105e1565b5b80604052505050565b600061064b610434565b90506106578282610610565b919050565b600067ffffffffffffffff821115610677576106766105e1565b5b61068082610541565b9050602081019050919050565b82818337600083830152505050565b60006106af6106aa8461065c565b610641565b9050828152602081018484840111156106cb576106ca6105dc565b5b6106d684828561068d565b509392505050565b600082601f8301126106f3576106f26105d7565b5b813561070384826020860161069c565b91505092915050565b6000806000606084860312156107255761072461043e565b5b600061073386828701610469565b935050602061074486828701610469565b925050604084013567ffffffffffffffff81111561076557610764610443565b5b610771868287016106de565b9150509250925092565b600060208201905061079060008301846104ec565b92915050565b7f4e487b7100000000000000000000000000000000000000000000000000000000600052602260045260246000fd5b600060028204905060018216806107dd57607f821691505b6020821081036107f0576107ef610796565b5b50919050565b60008190508160005260206000209050919050565b60006020601f8301049050919050565b600082821b905092915050565b6000600883026108587fffffffffffffffffffffffffffffffffffffffffffffffffffffffffffffffff8261081b565b610862868361081b565b95508019841693508086168417925050509392505050565b6000819050919050565b600061089f61089a61089584610448565b61087a565b610448565b9050919050565b6000819050919050565b6108b983610884565b6108cd6108c5826108a6565b848454610828565b825550505050565b600090565b6108e26108d5565b6108ed8184846108b0565b505050565b5b81811015610911576109066000826108da565b6001810190506108f3565b5050565b601f82111561095657610927816107f6565b6109308461080b565b8101602085101561093f578190505b61095361094b8561080b565b8301826108f2565b50505b505050565b600082821c905092915050565b60006109796000198460080261095b565b1980831691505092915050565b60006109928383610968565b9150826002028217905092915050565b6109ab826104fb565b67ffffffffffffffff8111156109c4576109c36105e1565b5b6109ce82546107c5565b6109d9828285610915565b600060209050601f831160018114610a0c57600084156109fa578287015190505b610a048582610986565b865550610a6c565b601f198416610a1a866107f6565b60005b82811015610a4257848901518255600182019150602085019450602081019050610a1d565b86831015610a5f5784890151610a5b601f891682610968565b8355505b6001600288020188555050505b505050505050565b600060a082019050610a8960008301886104ec565b610a9660208301876104dd565b610aa360408301866104ec565b610ab060608301856104ec565b8181036080830152610ac28184610552565b90509695505050505050565b7f4e487b7100000000000000000000000000000000000000000000000000000000600052601160045260246000fd5b6000610b0882610448565b91507fffffffffffffffffffffffffffffffffffffffffffffffffffffffffffffffff8203610b3a57610b39610ace565b5b60018201905091905056fea26469706673582212200228c983af63a74cacc4353c07e21b60b2eca59fc477a31e02b75ea402e8977d64736f6c63430008120033",
  "linkReferences": {},
  "deployedLinkReferences": {}
}